{
  "address": "0x54D6CFC43299115535020173b7C00765E521Eca1",
  "abi": [
    {
      "inputs": [],
      "name": "GEL",
      "outputs": [
        {
          "internalType": "address",
          "name": "",
          "type": "address"
        }
      ],
      "stateMutability": "view",
      "type": "function"
    },
    {
      "inputs": [],
      "name": "GEL_DAO",
      "outputs": [
        {
          "internalType": "address",
          "name": "",
          "type": "address"
        }
      ],
      "stateMutability": "view",
      "type": "function"
    },
    {
      "inputs": [],
      "name": "GEL_VESTING_HUB_HELPER",
      "outputs": [
        {
          "internalType": "address",
          "name": "",
          "type": "address"
        }
      ],
      "stateMutability": "view",
      "type": "function"
    },
    {
      "inputs": [],
      "name": "GEL_VESTING_TREASURY",
      "outputs": [
        {
          "internalType": "address",
          "name": "",
          "type": "address"
        }
      ],
      "stateMutability": "view",
      "type": "function"
    },
    {
      "inputs": [],
      "name": "VESTING_DURATION",
      "outputs": [
        {
          "internalType": "uint256",
          "name": "",
          "type": "uint256"
        }
      ],
      "stateMutability": "view",
      "type": "function"
    },
    {
      "inputs": [],
      "name": "VESTING_START",
      "outputs": [
        {
          "internalType": "uint256",
          "name": "",
          "type": "uint256"
        }
      ],
      "stateMutability": "view",
      "type": "function"
    },
    {
      "inputs": [],
      "name": "returnCirculatingGelSupply",
      "outputs": [
        {
          "internalType": "uint256",
          "name": "circulatingSupplyWei",
          "type": "uint256"
        },
        {
          "internalType": "uint256",
          "name": "circulatingSupply",
          "type": "uint256"
        }
      ],
      "stateMutability": "view",
      "type": "function"
    }
  ],
  "transactionHash": "0x9fbb8248a989a986e567cf13e6351a97419c73e2699cbac98b9c46fa361d040b",
  "args": [],
  "numDeployments": 1,
  "solcInputHash": "a39acedf261c11129527dfc8fc3c64cd",
  "bytecode": "0x608060405234801561001057600080fd5b50610709806100206000396000f3fe608060405234801561001057600080fd5b506004361061007d5760003560e01c8063612367551161005b57806361236755146100dd57806388947877146100fb578063bba2141014610119578063cfd11c4f146101375761007d565b8063290b809414610082578063300f03ab146100a15780634cfc4d30146100bf575b600080fd5b61008a610155565b6040516100989291906104d0565b60405180910390f35b6100a961041a565b6040516100b6919061053a565b60405180910390f35b6100c7610432565b6040516100d49190610555565b60405180910390f35b6100e561043a565b6040516100f2919061053a565b60405180910390f35b610103610452565b604051610110919061053a565b60405180910390f35b61012161046a565b60405161012e919061053a565b60405180910390f35b61013f610482565b60405161014c9190610555565b60405180910390f35b6000807315b7c0c907e4c6b9adaaaabc300c08991d6cea0573ffffffffffffffffffffffffffffffffffffffff166318160ddd6040518163ffffffff1660e01b8152600401602060405180830381865afa1580156101b7573d6000803e3d6000fd5b505050506040513d601f19601f820116820180604052508101906101db91906105a1565b915060007315b7c0c907e4c6b9adaaaabc300c08991d6cea0573ffffffffffffffffffffffffffffffffffffffff166370a08231734c64ce7c270e1316692067771bbb0dce6ec69b7c6040518263ffffffff1660e01b8152600401610240919061053a565b602060405180830381865afa15801561025d573d6000803e3d6000fd5b505050506040513d601f19601f8201168201806040525081019061028191906105a1565b905060007315b7c0c907e4c6b9adaaaabc300c08991d6cea0573ffffffffffffffffffffffffffffffffffffffff166370a0823173163407fda1a93941358c1bfda39a868599553b6d6040518263ffffffff1660e01b81526004016102e6919061053a565b602060405180830381865afa158015610303573d6000803e3d6000fd5b505050506040513d601f19601f8201168201806040525081019061032791906105a1565b9050818461033591906105fd565b9350600073766f4416dc7bb3a2a38240176f1427e01291faee73ffffffffffffffffffffffffffffffffffffffff1663a93aeb1c6040518163ffffffff1660e01b8152600401602060405180830381865afa158015610398573d6000803e3d6000fd5b505050506040513d601f19601f820116820180604052508101906103bc91906105a1565b905080856103ca91906105fd565b945060006103e18363613f75806307861f8061048a565b836103ec91906105fd565b905080866103fa91906105fd565b9550670de0b6b3a7640000866104109190610660565b9450505050509091565b7315b7c0c907e4c6b9adaaaabc300c08991d6cea0581565b6307861f8081565b734c64ce7c270e1316692067771bbb0dce6ec69b7c81565b73163407fda1a93941358c1bfda39a868599553b6d81565b73766f4416dc7bb3a2a38240176f1427e01291faee81565b63613f758081565b600081834261049991906105fd565b856104a49190610691565b6104ae9190610660565b90509392505050565b6000819050919050565b6104ca816104b7565b82525050565b60006040820190506104e560008301856104c1565b6104f260208301846104c1565b9392505050565b600073ffffffffffffffffffffffffffffffffffffffff82169050919050565b6000610524826104f9565b9050919050565b61053481610519565b82525050565b600060208201905061054f600083018461052b565b92915050565b600060208201905061056a60008301846104c1565b92915050565b600080fd5b61057e816104b7565b811461058957600080fd5b50565b60008151905061059b81610575565b92915050565b6000602082840312156105b7576105b6610570565b5b60006105c58482850161058c565b91505092915050565b7f4e487b7100000000000000000000000000000000000000000000000000000000600052601160045260246000fd5b6000610608826104b7565b9150610613836104b7565b925082820390508181111561062b5761062a6105ce565b5b92915050565b7f4e487b7100000000000000000000000000000000000000000000000000000000600052601260045260246000fd5b600061066b826104b7565b9150610676836104b7565b92508261068657610685610631565b5b828204905092915050565b600061069c826104b7565b91506106a7836104b7565b92508282026106b5816104b7565b915082820484148315176106cc576106cb6105ce565b5b509291505056fea26469706673582212208416b52ac773723d2b79e353219daeacca4ef5a87986ace2c9e26362a23a87d064736f6c63430008110033",
  "devdoc": {
    "author": "hilmarx (Hilmar Orth) - Gelato Network",
    "details": "Returns the current circluating GEL token supply",
    "kind": "dev",
    "methods": {
      "returnCirculatingGelSupply()": {
        "returns": {
          "circulatingSupply": "Parsed circulating supply of GEL.",
          "circulatingSupplyWei": "Circulating supply of GEL in wei."
        }
      }
    },
    "title": "GelCirculatingSupplyResolver",
    "version": 1
  },
  "userdoc": {
    "kind": "user",
    "methods": {
      "returnCirculatingGelSupply()": {
        "notice": "Returns the current circulating GEL supply"
      }
    },
    "version": 1
  },
  "storageLayout": {
    "storage": [],
    "types": null
  }
}